{
  "contractName": "AkatherReward",
  "abi": [
    {
      "inputs": [
        {
          "internalType": "address",
          "name": "_tokenAddress",
          "type": "address"
        }
      ],
      "stateMutability": "nonpayable",
      "type": "constructor"
    },
    {
      "anonymous": false,
      "inputs": [
        {
          "indexed": false,
          "internalType": "uint256",
          "name": "id",
          "type": "uint256"
        }
      ],
      "name": "ContestStatusChanged",
      "type": "event"
    },
    {
      "inputs": [
        {
          "internalType": "uint256",
          "name": "",
          "type": "uint256"
        }
      ],
      "name": "contests",
      "outputs": [
        {
          "internalType": "uint256",
          "name": "id",
          "type": "uint256"
        },
        {
          "internalType": "address",
          "name": "creator",
          "type": "address"
        },
        {
          "internalType": "enum AkatherReward.ContestStatus",
          "name": "status",
          "type": "uint8"
        },
        {
          "internalType": "string",
          "name": "ContestName",
          "type": "string"
        },
        {
          "internalType": "uint256",
          "name": "prizeAmount",
          "type": "uint256"
        },
        {
          "internalType": "address",
          "name": "winner",
          "type": "address"
        }
      ],
      "stateMutability": "view",
      "type": "function",
      "constant": true
    },
    {
      "inputs": [],
      "name": "token",
      "outputs": [
        {
          "internalType": "contract IERC20",
          "name": "",
          "type": "address"
        }
      ],
      "stateMutability": "view",
      "type": "function",
      "constant": true
    },
    {
      "inputs": [
        {
          "internalType": "string",
          "name": "_contestName",
          "type": "string"
        },
        {
          "internalType": "uint256",
          "name": "_prizeAmount",
          "type": "uint256"
        }
      ],
      "name": "createContest",
      "outputs": [],
      "stateMutability": "nonpayable",
      "type": "function"
    },
    {
      "inputs": [
        {
          "internalType": "uint256",
          "name": "_contestId",
          "type": "uint256"
        },
        {
          "internalType": "address",
          "name": "_winner",
          "type": "address"
        }
      ],
      "name": "finishContest",
      "outputs": [],
      "stateMutability": "nonpayable",
      "type": "function"
    },
    {
      "inputs": [
        {
          "internalType": "uint256",
          "name": "_contestId",
          "type": "uint256"
        }
      ],
      "name": "withdrawRewards",
      "outputs": [],
      "stateMutability": "nonpayable",
      "type": "function"
    }
  ],
  "bytecode": "0x608060405234801561001057600080fd5b506040516200105338038062001053833981810160405281019061003491906100dd565b806000806101000a81548173ffffffffffffffffffffffffffffffffffffffff021916908373ffffffffffffffffffffffffffffffffffffffff1602179055505061010a565b600080fd5b600073ffffffffffffffffffffffffffffffffffffffff82169050919050565b60006100aa8261007f565b9050919050565b6100ba8161009f565b81146100c557600080fd5b50565b6000815190506100d7816100b1565b92915050565b6000602082840312156100f3576100f261007a565b5b6000610101848285016100c8565b91505092915050565b610f39806200011a6000396000f3fe608060405234801561001057600080fd5b50600436106100575760003560e01c80631e745e611461005c57806377683e3c146100785780639342c8f4146100945780639d7ed738146100b0578063fc0c546a146100e5575b600080fd5b61007660048036038101906100719190610a24565b610103565b005b610092600480360381019061008d9190610ade565b61036f565b005b6100ae60048036038101906100a99190610b1e565b6104cc565b005b6100ca60048036038101906100c59190610b1e565b6106bc565b6040516100dc96959493929190610c68565b60405180910390f35b6100ed6107cd565b6040516100fa9190610d2f565b60405180910390f35b60008054906101000a900473ffffffffffffffffffffffffffffffffffffffff1673ffffffffffffffffffffffffffffffffffffffff166323b872dd3330846040518463ffffffff1660e01b815260040161016093929190610d4a565b6020604051808303816000875af115801561017f573d6000803e3d6000fd5b505050506040513d601f19601f820116820180604052508101906101a39190610db9565b50600160008154809291906101b790610e15565b91905055506040518060c0016040528060015481526020013373ffffffffffffffffffffffffffffffffffffffff168152602001600160038111156101ff576101fe610b69565b5b8152602001838152602001828152602001600073ffffffffffffffffffffffffffffffffffffffff168152506002600060015481526020019081526020016000206000820151816000015560208201518160010160006101000a81548173ffffffffffffffffffffffffffffffffffffffff021916908373ffffffffffffffffffffffffffffffffffffffff16021790555060408201518160010160146101000a81548160ff021916908360038111156102bc576102bb610b69565b5b021790555060608201518160020190805190602001906102dd9291906107f1565b506080820151816003015560a08201518160040160006101000a81548173ffffffffffffffffffffffffffffffffffffffff021916908373ffffffffffffffffffffffffffffffffffffffff1602179055509050507f17596e0167f79074a4fe5ead81826dea717f6dd982ab09dc6ec40ddf215433aa6001546040516103639190610e5e565b60405180910390a15050565b33828173ffffffffffffffffffffffffffffffffffffffff166002600083815260200190815260200160002060010160009054906101000a900473ffffffffffffffffffffffffffffffffffffffff1673ffffffffffffffffffffffffffffffffffffffff16146103df57600080fd5b600160038111156103f3576103f2610b69565b5b6002600086815260200190815260200160002060010160149054906101000a900460ff16600381111561042957610428610b69565b5b1461043357600080fd5b600280600086815260200190815260200160002060010160146101000a81548160ff0219169083600381111561046c5761046b610b69565b5b0217905550826002600086815260200190815260200160002060040160006101000a81548173ffffffffffffffffffffffffffffffffffffffff021916908373ffffffffffffffffffffffffffffffffffffffff16021790555050505050565b600260038111156104e0576104df610b69565b5b6002600083815260200190815260200160002060010160149054906101000a900460ff16600381111561051657610515610b69565b5b1461052057600080fd5b6002600082815260200190815260200160002060040160009054906101000a900473ffffffffffffffffffffffffffffffffffffffff1673ffffffffffffffffffffffffffffffffffffffff163373ffffffffffffffffffffffffffffffffffffffff161461058e57600080fd5b60036002600083815260200190815260200160002060010160146101000a81548160ff021916908360038111156105c8576105c7610b69565b5b021790555060008054906101000a900473ffffffffffffffffffffffffffffffffffffffff1673ffffffffffffffffffffffffffffffffffffffff1663a9059cbb3360026000858152602001908152602001600020600301546040518363ffffffff1660e01b815260040161063e929190610e79565b6020604051808303816000875af115801561065d573d6000803e3d6000fd5b505050506040513d601f19601f820116820180604052508101906106819190610db9565b507f17596e0167f79074a4fe5ead81826dea717f6dd982ab09dc6ec40ddf215433aa816040516106b19190610e5e565b60405180910390a150565b60026020528060005260406000206000915090508060000154908060010160009054906101000a900473ffffffffffffffffffffffffffffffffffffffff16908060010160149054906101000a900460ff169080600201805461071e90610ed1565b80601f016020809104026020016040519081016040528092919081815260200182805461074a90610ed1565b80156107975780601f1061076c57610100808354040283529160200191610797565b820191906000526020600020905b81548152906001019060200180831161077a57829003601f168201915b5050505050908060030154908060040160009054906101000a900473ffffffffffffffffffffffffffffffffffffffff16905086565b60008054906101000a900473ffffffffffffffffffffffffffffffffffffffff1681565b8280546107fd90610ed1565b90600052602060002090601f01602090048101928261081f5760008555610866565b82601f1061083857805160ff1916838001178555610866565b82800160010185558215610866579182015b8281111561086557825182559160200191906001019061084a565b5b5090506108739190610877565b5090565b5b80821115610890576000816000905550600101610878565b5090565b6000604051905090565b600080fd5b600080fd5b600080fd5b600080fd5b6000601f19601f8301169050919050565b7f4e487b7100000000000000000000000000000000000000000000000000000000600052604160045260246000fd5b6108fb826108b2565b810181811067ffffffffffffffff8211171561091a576109196108c3565b5b80604052505050565b600061092d610894565b905061093982826108f2565b919050565b600067ffffffffffffffff821115610959576109586108c3565b5b610962826108b2565b9050602081019050919050565b82818337600083830152505050565b600061099161098c8461093e565b610923565b9050828152602081018484840111156109ad576109ac6108ad565b5b6109b884828561096f565b509392505050565b600082601f8301126109d5576109d46108a8565b5b81356109e584826020860161097e565b91505092915050565b6000819050919050565b610a01816109ee565b8114610a0c57600080fd5b50565b600081359050610a1e816109f8565b92915050565b60008060408385031215610a3b57610a3a61089e565b5b600083013567ffffffffffffffff811115610a5957610a586108a3565b5b610a65858286016109c0565b9250506020610a7685828601610a0f565b9150509250929050565b600073ffffffffffffffffffffffffffffffffffffffff82169050919050565b6000610aab82610a80565b9050919050565b610abb81610aa0565b8114610ac657600080fd5b50565b600081359050610ad881610ab2565b92915050565b60008060408385031215610af557610af461089e565b5b6000610b0385828601610a0f565b9250506020610b1485828601610ac9565b9150509250929050565b600060208284031215610b3457610b3361089e565b5b6000610b4284828501610a0f565b91505092915050565b610b54816109ee565b82525050565b610b6381610aa0565b82525050565b7f4e487b7100000000000000000000000000000000000000000000000000000000600052602160045260246000fd5b60048110610ba957610ba8610b69565b5b50565b6000819050610bba82610b98565b919050565b6000610bca82610bac565b9050919050565b610bda81610bbf565b82525050565b600081519050919050565b600082825260208201905092915050565b60005b83811015610c1a578082015181840152602081019050610bff565b83811115610c29576000848401525b50505050565b6000610c3a82610be0565b610c448185610beb565b9350610c54818560208601610bfc565b610c5d816108b2565b840191505092915050565b600060c082019050610c7d6000830189610b4b565b610c8a6020830188610b5a565b610c976040830187610bd1565b8181036060830152610ca98186610c2f565b9050610cb86080830185610b4b565b610cc560a0830184610b5a565b979650505050505050565b6000819050919050565b6000610cf5610cf0610ceb84610a80565b610cd0565b610a80565b9050919050565b6000610d0782610cda565b9050919050565b6000610d1982610cfc565b9050919050565b610d2981610d0e565b82525050565b6000602082019050610d446000830184610d20565b92915050565b6000606082019050610d5f6000830186610b5a565b610d6c6020830185610b5a565b610d796040830184610b4b565b949350505050565b60008115159050919050565b610d9681610d81565b8114610da157600080fd5b50565b600081519050610db381610d8d565b92915050565b600060208284031215610dcf57610dce61089e565b5b6000610ddd84828501610da4565b91505092915050565b7f4e487b7100000000000000000000000000000000000000000000000000000000600052601160045260246000fd5b6000610e20826109ee565b91507fffffffffffffffffffffffffffffffffffffffffffffffffffffffffffffffff821415610e5357610e52610de6565b5b600182019050919050565b6000602082019050610e736000830184610b4b565b92915050565b6000604082019050610e8e6000830185610b5a565b610e9b6020830184610b4b565b9392505050565b7f4e487b7100000000000000000000000000000000000000000000000000000000600052602260045260246000fd5b60006002820490506001821680610ee957607f821691505b60208210811415610efd57610efc610ea2565b5b5091905056fea26469706673582212209056b45fecbb1ea11257713ef23ee395b1ab8f61f5813efd7a86374a3281e8c764736f6c634300080a0033",
  "immutableReferences": {},
  "source": "pragma solidity ^0.8.0;\r\n\r\nimport \"@openzeppelin/contracts/token/ERC20/IERC20.sol\";\r\nimport \"./AkatherToken.sol\";\r\ncontract AkatherReward{\r\n    IERC20 public token;\r\n    uint256 numberOfContests;\r\n    enum ContestStatus{ NOTCREATED,CREATED, FINISHED, CLOSED}\r\n    struct Contest{\r\n        uint256 id;\r\n        address creator;\r\n        ContestStatus status;\r\n        string ContestName;\r\n        uint256 prizeAmount;\r\n        address winner;\r\n    }\r\n    mapping(uint256 => Contest) public contests;\r\n    event ContestStatusChanged(uint256 id);\r\n    modifier onlyCreator(address _address,uint256 _contestId){\r\n        require(contests[_contestId].creator == _address);\r\n        _;\r\n    }\r\n    constructor(address _tokenAddress){\r\n        token = ERC20(_tokenAddress);   \r\n    }\r\n    function createContest(string memory _contestName, uint _prizeAmount) public {\r\n        token.transferFrom(msg.sender, address(this), _prizeAmount);\r\n        numberOfContests++;\r\n        contests[numberOfContests] = Contest(numberOfContests,msg.sender,ContestStatus.CREATED,_contestName,_prizeAmount,address(0)) ;\r\n        emit ContestStatusChanged(numberOfContests);\r\n    }\r\n    function finishContest(uint256 _contestId,address _winner) public onlyCreator(msg.sender,_contestId){\r\n        require(contests[_contestId].status == ContestStatus.CREATED);\r\n        contests[_contestId].status = ContestStatus.FINISHED;\r\n        contests[_contestId].winner = _winner;\r\n    }\r\n    function withdrawRewards(uint256 _contestId) public{\r\n        require(contests[_contestId].status == ContestStatus.FINISHED);\r\n        require(msg.sender == contests[_contestId].winner);\r\n        contests[_contestId].status = ContestStatus.CLOSED;\r\n        token.transfer(msg.sender, contests[_contestId].prizeAmount);\r\n        emit ContestStatusChanged(_contestId);\r\n    }\r\n}",
  "sourcePath": "E:\\PersonalProject\\Akather\\vbihackathon\\contracts\\AkatherReward.sol",
  "compiler": {
    "name": "solc",
    "version": "0.8.10+commit.fc410830.Emscripten.clang"
  },
  "schemaVersion": "3.4.3",
  "updatedAt": "2021-12-17T05:12:38.612Z",
  "networkType": "ethereum",
  "devdoc": {
    "kind": "dev",
    "methods": {},
    "version": 1
  },
  "userdoc": {
    "kind": "user",
    "methods": {},
    "version": 1
  }
}